{
  "_format": "hh-sol-artifact-1",
  "contractName": "CustomUFragments",
  "sourceName": "contracts/CustomUFragments.sol",
  "abi": [
    {
      "inputs": [
        {
          "internalType": "string",
          "name": "_name",
          "type": "string"
        },
        {
          "internalType": "string",
          "name": "_symbol",
          "type": "string"
        }
      ],
      "stateMutability": "nonpayable",
      "type": "constructor"
    },
    {
      "anonymous": false,
      "inputs": [
        {
          "indexed": true,
          "internalType": "address",
          "name": "owner",
          "type": "address"
        },
        {
          "indexed": true,
          "internalType": "address",
          "name": "spender",
          "type": "address"
        },
        {
          "indexed": false,
          "internalType": "uint256",
          "name": "value",
          "type": "uint256"
        }
      ],
      "name": "Approval",
      "type": "event"
    },
    {
      "anonymous": false,
      "inputs": [
        {
          "indexed": false,
          "internalType": "address",
          "name": "monetaryPolicy",
          "type": "address"
        }
      ],
      "name": "LogMonetaryPolicyUpdated",
      "type": "event"
    },
    {
      "anonymous": false,
      "inputs": [
        {
          "indexed": true,
          "internalType": "uint256",
          "name": "epoch",
          "type": "uint256"
        },
        {
          "indexed": false,
          "internalType": "uint256",
          "name": "totalSupply",
          "type": "uint256"
        }
      ],
      "name": "LogRebase",
      "type": "event"
    },
    {
      "anonymous": false,
      "inputs": [
        {
          "indexed": true,
          "internalType": "address",
          "name": "previousOwner",
          "type": "address"
        },
        {
          "indexed": true,
          "internalType": "address",
          "name": "newOwner",
          "type": "address"
        }
      ],
      "name": "OwnershipTransferred",
      "type": "event"
    },
    {
      "anonymous": false,
      "inputs": [
        {
          "indexed": true,
          "internalType": "address",
          "name": "from",
          "type": "address"
        },
        {
          "indexed": true,
          "internalType": "address",
          "name": "to",
          "type": "address"
        },
        {
          "indexed": false,
          "internalType": "uint256",
          "name": "value",
          "type": "uint256"
        }
      ],
      "name": "Transfer",
      "type": "event"
    },
    {
      "inputs": [
        {
          "internalType": "address",
          "name": "owner_",
          "type": "address"
        },
        {
          "internalType": "address",
          "name": "spender",
          "type": "address"
        }
      ],
      "name": "allowance",
      "outputs": [
        {
          "internalType": "uint256",
          "name": "",
          "type": "uint256"
        }
      ],
      "stateMutability": "view",
      "type": "function"
    },
    {
      "inputs": [
        {
          "internalType": "address",
          "name": "spender",
          "type": "address"
        },
        {
          "internalType": "uint256",
          "name": "value",
          "type": "uint256"
        }
      ],
      "name": "approve",
      "outputs": [
        {
          "internalType": "bool",
          "name": "",
          "type": "bool"
        }
      ],
      "stateMutability": "nonpayable",
      "type": "function"
    },
    {
      "inputs": [
        {
          "internalType": "address",
          "name": "who",
          "type": "address"
        }
      ],
      "name": "balanceOf",
      "outputs": [
        {
          "internalType": "uint256",
          "name": "",
          "type": "uint256"
        }
      ],
      "stateMutability": "view",
      "type": "function"
    },
    {
      "inputs": [],
      "name": "decimals",
      "outputs": [
        {
          "internalType": "uint8",
          "name": "",
          "type": "uint8"
        }
      ],
      "stateMutability": "pure",
      "type": "function"
    },
    {
      "inputs": [
        {
          "internalType": "address",
          "name": "spender",
          "type": "address"
        },
        {
          "internalType": "uint256",
          "name": "subtractedValue",
          "type": "uint256"
        }
      ],
      "name": "decreaseAllowance",
      "outputs": [
        {
          "internalType": "bool",
          "name": "",
          "type": "bool"
        }
      ],
      "stateMutability": "nonpayable",
      "type": "function"
    },
    {
      "inputs": [
        {
          "internalType": "address",
          "name": "spender",
          "type": "address"
        },
        {
          "internalType": "uint256",
          "name": "addedValue",
          "type": "uint256"
        }
      ],
      "name": "increaseAllowance",
      "outputs": [
        {
          "internalType": "bool",
          "name": "",
          "type": "bool"
        }
      ],
      "stateMutability": "nonpayable",
      "type": "function"
    },
    {
      "inputs": [],
      "name": "lastEpoch",
      "outputs": [
        {
          "internalType": "uint256",
          "name": "",
          "type": "uint256"
        }
      ],
      "stateMutability": "view",
      "type": "function"
    },
    {
      "inputs": [],
      "name": "monetaryPolicy",
      "outputs": [
        {
          "internalType": "address",
          "name": "",
          "type": "address"
        }
      ],
      "stateMutability": "view",
      "type": "function"
    },
    {
      "inputs": [],
      "name": "name",
      "outputs": [
        {
          "internalType": "string",
          "name": "",
          "type": "string"
        }
      ],
      "stateMutability": "view",
      "type": "function"
    },
    {
      "inputs": [],
      "name": "owner",
      "outputs": [
        {
          "internalType": "address",
          "name": "",
          "type": "address"
        }
      ],
      "stateMutability": "view",
      "type": "function"
    },
    {
      "inputs": [
        {
          "internalType": "uint256",
          "name": "epoch",
          "type": "uint256"
        },
        {
          "internalType": "int256",
          "name": "supplyDelta",
          "type": "int256"
        }
      ],
      "name": "rebase",
      "outputs": [
        {
          "internalType": "uint256",
          "name": "",
          "type": "uint256"
        }
      ],
      "stateMutability": "nonpayable",
      "type": "function"
    },
    {
      "inputs": [
        {
          "internalType": "uint256",
          "name": "epoch",
          "type": "uint256"
        },
        {
          "internalType": "int256",
          "name": "supplyDelta",
          "type": "int256"
        },
        {
          "internalType": "address",
          "name": "pair",
          "type": "address"
        }
      ],
      "name": "rebaseAndSync",
      "outputs": [],
      "stateMutability": "nonpayable",
      "type": "function"
    },
    {
      "inputs": [],
      "name": "renounceOwnership",
      "outputs": [],
      "stateMutability": "nonpayable",
      "type": "function"
    },
    {
      "inputs": [
        {
          "internalType": "address",
          "name": "who",
          "type": "address"
        }
      ],
      "name": "scaledBalanceOf",
      "outputs": [
        {
          "internalType": "uint256",
          "name": "",
          "type": "uint256"
        }
      ],
      "stateMutability": "view",
      "type": "function"
    },
    {
      "inputs": [],
      "name": "scaledTotalSupply",
      "outputs": [
        {
          "internalType": "uint256",
          "name": "",
          "type": "uint256"
        }
      ],
      "stateMutability": "pure",
      "type": "function"
    },
    {
      "inputs": [
        {
          "internalType": "address",
          "name": "monetaryPolicy_",
          "type": "address"
        }
      ],
      "name": "setMonetaryPolicy",
      "outputs": [],
      "stateMutability": "nonpayable",
      "type": "function"
    },
    {
      "inputs": [],
      "name": "symbol",
      "outputs": [
        {
          "internalType": "string",
          "name": "",
          "type": "string"
        }
      ],
      "stateMutability": "view",
      "type": "function"
    },
    {
      "inputs": [],
      "name": "totalSupply",
      "outputs": [
        {
          "internalType": "uint256",
          "name": "",
          "type": "uint256"
        }
      ],
      "stateMutability": "view",
      "type": "function"
    },
    {
      "inputs": [
        {
          "internalType": "address",
          "name": "to",
          "type": "address"
        },
        {
          "internalType": "uint256",
          "name": "value",
          "type": "uint256"
        }
      ],
      "name": "transfer",
      "outputs": [
        {
          "internalType": "bool",
          "name": "",
          "type": "bool"
        }
      ],
      "stateMutability": "nonpayable",
      "type": "function"
    },
    {
      "inputs": [
        {
          "internalType": "address",
          "name": "to",
          "type": "address"
        }
      ],
      "name": "transferAll",
      "outputs": [
        {
          "internalType": "bool",
          "name": "",
          "type": "bool"
        }
      ],
      "stateMutability": "nonpayable",
      "type": "function"
    },
    {
      "inputs": [
        {
          "internalType": "address",
          "name": "from",
          "type": "address"
        },
        {
          "internalType": "address",
          "name": "to",
          "type": "address"
        }
      ],
      "name": "transferAllFrom",
      "outputs": [
        {
          "internalType": "bool",
          "name": "",
          "type": "bool"
        }
      ],
      "stateMutability": "nonpayable",
      "type": "function"
    },
    {
      "inputs": [
        {
          "internalType": "address",
          "name": "from",
          "type": "address"
        },
        {
          "internalType": "address",
          "name": "to",
          "type": "address"
        },
        {
          "internalType": "uint256",
          "name": "value",
          "type": "uint256"
        }
      ],
      "name": "transferFrom",
      "outputs": [
        {
          "internalType": "bool",
          "name": "",
          "type": "bool"
        }
      ],
      "stateMutability": "nonpayable",
      "type": "function"
    },
    {
      "inputs": [
        {
          "internalType": "address",
          "name": "newOwner",
          "type": "address"
        }
      ],
      "name": "transferOwnership",
      "outputs": [],
      "stateMutability": "nonpayable",
      "type": "function"
    }
  ],
  "bytecode": "0x608060405260006007553480156200001657600080fd5b5060405162002da338038062002da383398181016040528101906200003c919062000602565b8181816003908051906020019062000056929190620003b5565b5080600490805190602001906200006f929190620003b5565b5050506200009262000086620002e760201b60201c565b620002ef60201b60201c565b6009600a620000a2919062000814565b6302faf080620000b3919062000865565b6008819055506009600a620000c9919062000814565b6302faf080620000da919062000865565b7fffffffffffffffffffffffffffffffffffffffffffffffffffffffffffffffff620001079190620008f5565b7fffffffffffffffffffffffffffffffffffffffffffffffffffffffffffffffff6200013491906200092d565b600a600062000148620002e760201b60201c565b73ffffffffffffffffffffffffffffffffffffffff1673ffffffffffffffffffffffffffffffffffffffff168152602001908152602001600020819055506008546009600a62000199919062000814565b6302faf080620001aa919062000865565b7fffffffffffffffffffffffffffffffffffffffffffffffffffffffffffffffff620001d79190620008f5565b7fffffffffffffffffffffffffffffffffffffffffffffffffffffffffffffffff6200020491906200092d565b62000210919062000968565b60098190555062000226620002e760201b60201c565b600660006101000a81548173ffffffffffffffffffffffffffffffffffffffff021916908373ffffffffffffffffffffffffffffffffffffffff16021790555062000276620002e760201b60201c565b73ffffffffffffffffffffffffffffffffffffffff16600073ffffffffffffffffffffffffffffffffffffffff167fddf252ad1be2c89b69c2b068fc378daa952ba7f163c4a11628f55a4df523b3ef600854604051620002d79190620009b1565b60405180910390a3505062000a33565b600033905090565b6000600560009054906101000a900473ffffffffffffffffffffffffffffffffffffffff16905081600560006101000a81548173ffffffffffffffffffffffffffffffffffffffff021916908373ffffffffffffffffffffffffffffffffffffffff1602179055508173ffffffffffffffffffffffffffffffffffffffff168173ffffffffffffffffffffffffffffffffffffffff167f8be0079c531659141344cd1fd0a4f28419497f9722a3daafe3b4186f6b6457e060405160405180910390a35050565b828054620003c390620009fd565b90600052602060002090601f016020900481019282620003e7576000855562000433565b82601f106200040257805160ff191683800117855562000433565b8280016001018555821562000433579182015b828111156200043257825182559160200191906001019062000415565b5b50905062000442919062000446565b5090565b5b808211156200046157600081600090555060010162000447565b5090565b6000604051905090565b600080fd5b600080fd5b600080fd5b600080fd5b6000601f19601f8301169050919050565b7f4e487b7100000000000000000000000000000000000000000000000000000000600052604160045260246000fd5b620004ce8262000483565b810181811067ffffffffffffffff82111715620004f057620004ef62000494565b5b80604052505050565b60006200050562000465565b9050620005138282620004c3565b919050565b600067ffffffffffffffff82111562000536576200053562000494565b5b620005418262000483565b9050602081019050919050565b60005b838110156200056e57808201518184015260208101905062000551565b838111156200057e576000848401525b50505050565b60006200059b620005958462000518565b620004f9565b905082815260208101848484011115620005ba57620005b96200047e565b5b620005c78482856200054e565b509392505050565b600082601f830112620005e757620005e662000479565b5b8151620005f984826020860162000584565b91505092915050565b600080604083850312156200061c576200061b6200046f565b5b600083015167ffffffffffffffff8111156200063d576200063c62000474565b5b6200064b85828601620005cf565b925050602083015167ffffffffffffffff8111156200066f576200066e62000474565b5b6200067d85828601620005cf565b9150509250929050565b7f4e487b7100000000000000000000000000000000000000000000000000000000600052601160045260246000fd5b60008160011c9050919050565b6000808291508390505b60018511156200071557808604811115620006ed57620006ec62000687565b5b6001851615620006fd5780820291505b80810290506200070d85620006b6565b9450620006cd565b94509492505050565b60008262000730576001905062000803565b8162000740576000905062000803565b816001811462000759576002811462000764576200079a565b600191505062000803565b60ff84111562000779576200077862000687565b5b8360020a91508482111562000793576200079262000687565b5b5062000803565b5060208310610133831016604e8410600b8410161715620007d45782820a905083811115620007ce57620007cd62000687565b5b62000803565b620007e38484846001620006c3565b92509050818404811115620007fd57620007fc62000687565b5b81810290505b9392505050565b6000819050919050565b600062000821826200080a565b91506200082e836200080a565b92506200085d7fffffffffffffffffffffffffffffffffffffffffffffffffffffffffffffffff84846200071e565b905092915050565b600062000872826200080a565b91506200087f836200080a565b9250817fffffffffffffffffffffffffffffffffffffffffffffffffffffffffffffffff0483118215151615620008bb57620008ba62000687565b5b828202905092915050565b7f4e487b7100000000000000000000000000000000000000000000000000000000600052601260045260246000fd5b600062000902826200080a565b91506200090f836200080a565b925082620009225762000921620008c6565b5b828206905092915050565b60006200093a826200080a565b915062000947836200080a565b9250828210156200095d576200095c62000687565b5b828203905092915050565b600062000975826200080a565b915062000982836200080a565b925082620009955762000994620008c6565b5b828204905092915050565b620009ab816200080a565b82525050565b6000602082019050620009c86000830184620009a0565b92915050565b7f4e487b7100000000000000000000000000000000000000000000000000000000600052602260045260246000fd5b6000600282049050600182168062000a1657607f821691505b6020821081141562000a2d5762000a2c620009ce565b5b50919050565b6123608062000a436000396000f3fe608060405234801561001057600080fd5b506004361061014d5760003560e01c80637a43e23f116100c3578063a3a7e7f31161007c578063a3a7e7f3146103b6578063a457c2d7146103e6578063a9059cbb14610416578063b1bf962d14610446578063dd62ed3e14610464578063f2fde38b146104945761014d565b80637a43e23f146102e057806384d4b410146103105780638b5a6a08146103405780638da5cb5b1461035c5780638e27d7d71461037a57806395d89b41146103985761014d565b806323b872dd1161011557806323b872dd1461020c578063313ce5671461023c578063395093511461025a57806370a082311461028a578063715018a6146102ba578063787b90b3146102c45761014d565b806306a4c9831461015257806306fdde0314610170578063095ea7b31461018e57806318160ddd146101be5780631da24f3e146101dc575b600080fd5b61015a6104b0565b6040516101679190611a9b565b60405180910390f35b6101786104b6565b6040516101859190611b4f565b60405180910390f35b6101a860048036038101906101a39190611c00565b610548565b6040516101b59190611c5b565b60405180910390f35b6101c661063a565b6040516101d39190611a9b565b60405180910390f35b6101f660048036038101906101f19190611c76565b610644565b6040516102039190611a9b565b60405180910390f35b61022660048036038101906102219190611ca3565b61068d565b6040516102339190611c5b565b60405180910390f35b6102446108c6565b6040516102519190611d12565b60405180910390f35b610274600480360381019061026f9190611c00565b6108cf565b6040516102819190611c5b565b60405180910390f35b6102a4600480360381019061029f9190611c76565b610a4f565b6040516102b19190611a9b565b60405180910390f35b6102c2610aa5565b005b6102de60048036038101906102d99190611d63565b610b2d565b005b6102fa60048036038101906102f59190611db6565b610bf7565b6040516103079190611a9b565b60405180910390f35b61032a60048036038101906103259190611df6565b610df3565b6040516103379190611c5b565b60405180910390f35b61035a60048036038101906103559190611c76565b61105d565b005b610364611154565b6040516103719190611e45565b60405180910390f35b61038261117e565b60405161038f9190611e45565b60405180910390f35b6103a06111a4565b6040516103ad9190611b4f565b60405180910390f35b6103d060048036038101906103cb9190611c76565b611236565b6040516103dd9190611c5b565b60405180910390f35b61040060048036038101906103fb9190611c00565b61140c565b60405161040d9190611c5b565b60405180910390f35b610430600480360381019061042b9190611c00565b611616565b60405161043d9190611c5b565b60405180910390f35b61044e6117bb565b60405161045b9190611a9b565b60405180910390f35b61047e60048036038101906104799190611df6565b611835565b60405161048b9190611a9b565b60405180910390f35b6104ae60048036038101906104a99190611c76565b6118bc565b005b60075481565b6060600380546104c590611e8f565b80601f01602080910402602001604051908101604052809291908181526020018280546104f190611e8f565b801561053e5780601f106105135761010080835404028352916020019161053e565b820191906000526020600020905b81548152906001019060200180831161052157829003601f168201915b5050505050905090565b600081600b60003373ffffffffffffffffffffffffffffffffffffffff1673ffffffffffffffffffffffffffffffffffffffff16815260200190815260200160002060008573ffffffffffffffffffffffffffffffffffffffff1673ffffffffffffffffffffffffffffffffffffffff168152602001908152602001600020819055508273ffffffffffffffffffffffffffffffffffffffff163373ffffffffffffffffffffffffffffffffffffffff167f8c5be1e5ebec7d5bd14f71427d1e84f3dd0314c0f7b2291e5b200ac8c7c3b925846040516106289190611a9b565b60405180910390a36001905092915050565b6000600854905090565b6000600a60008373ffffffffffffffffffffffffffffffffffffffff1673ffffffffffffffffffffffffffffffffffffffff168152602001908152602001600020549050919050565b600082600073ffffffffffffffffffffffffffffffffffffffff168173ffffffffffffffffffffffffffffffffffffffff1614156106ca57600080fd5b3073ffffffffffffffffffffffffffffffffffffffff168173ffffffffffffffffffffffffffffffffffffffff16141561070357600080fd5b82600b60008773ffffffffffffffffffffffffffffffffffffffff1673ffffffffffffffffffffffffffffffffffffffff16815260200190815260200160002060003373ffffffffffffffffffffffffffffffffffffffff1673ffffffffffffffffffffffffffffffffffffffff168152602001908152602001600020600082825461078f9190611ef0565b925050819055506000600954846107a69190611f24565b905080600a60008873ffffffffffffffffffffffffffffffffffffffff1673ffffffffffffffffffffffffffffffffffffffff16815260200190815260200160002060008282546107f79190611ef0565b9250508190555080600a60008773ffffffffffffffffffffffffffffffffffffffff1673ffffffffffffffffffffffffffffffffffffffff168152602001908152602001600020600082825461084d9190611f7e565b925050819055508473ffffffffffffffffffffffffffffffffffffffff168673ffffffffffffffffffffffffffffffffffffffff167fddf252ad1be2c89b69c2b068fc378daa952ba7f163c4a11628f55a4df523b3ef866040516108b19190611a9b565b60405180910390a36001925050509392505050565b60006009905090565b600081600b60003373ffffffffffffffffffffffffffffffffffffffff1673ffffffffffffffffffffffffffffffffffffffff16815260200190815260200160002060008573ffffffffffffffffffffffffffffffffffffffff1673ffffffffffffffffffffffffffffffffffffffff168152602001908152602001600020600082825461095d9190611f7e565b925050819055508273ffffffffffffffffffffffffffffffffffffffff163373ffffffffffffffffffffffffffffffffffffffff167f8c5be1e5ebec7d5bd14f71427d1e84f3dd0314c0f7b2291e5b200ac8c7c3b925600b60003373ffffffffffffffffffffffffffffffffffffffff1673ffffffffffffffffffffffffffffffffffffffff16815260200190815260200160002060008773ffffffffffffffffffffffffffffffffffffffff1673ffffffffffffffffffffffffffffffffffffffff16815260200190815260200160002054604051610a3d9190611a9b565b60405180910390a36001905092915050565b6000600954600a60008473ffffffffffffffffffffffffffffffffffffffff1673ffffffffffffffffffffffffffffffffffffffff16815260200190815260200160002054610a9e9190612003565b9050919050565b610aad6119b4565b73ffffffffffffffffffffffffffffffffffffffff16610acb611154565b73ffffffffffffffffffffffffffffffffffffffff1614610b21576040517f08c379a0000000000000000000000000000000000000000000000000000000008152600401610b1890612080565b60405180910390fd5b610b2b60006119bc565b565b600660009054906101000a900473ffffffffffffffffffffffffffffffffffffffff1673ffffffffffffffffffffffffffffffffffffffff163373ffffffffffffffffffffffffffffffffffffffff1614610b8757600080fd5b610b918383610bf7565b508073ffffffffffffffffffffffffffffffffffffffff1663fff6cae96040518163ffffffff1660e01b8152600401600060405180830381600087803b158015610bda57600080fd5b505af1158015610bee573d6000803e3d6000fd5b50505050505050565b6000600660009054906101000a900473ffffffffffffffffffffffffffffffffffffffff1673ffffffffffffffffffffffffffffffffffffffff163373ffffffffffffffffffffffffffffffffffffffff1614610c5357600080fd5b826007819055506000821415610ca757827f72725a3b1e5bd622d6bcd1339bb31279c351abe8f541ac7fd320f24e1b1641f2600854604051610c959190611a9b565b60405180910390a26008549050610ded565b6000821215610cd75781610cba906120a0565b60086000828254610ccb9190611ef0565b92505081905550610cf1565b8160086000828254610ce99190611f7e565b925050819055505b6fffffffffffffffffffffffffffffffff80166008541115610d27576fffffffffffffffffffffffffffffffff80166008819055505b6008546009600a610d38919061221c565b6302faf080610d479190611f24565b7fffffffffffffffffffffffffffffffffffffffffffffffffffffffffffffffff610d729190612267565b7fffffffffffffffffffffffffffffffffffffffffffffffffffffffffffffffff610d9d9190611ef0565b610da79190612003565b600981905550827f72725a3b1e5bd622d6bcd1339bb31279c351abe8f541ac7fd320f24e1b1641f2600854604051610ddf9190611a9b565b60405180910390a260085490505b92915050565b600081600073ffffffffffffffffffffffffffffffffffffffff168173ffffffffffffffffffffffffffffffffffffffff161415610e3057600080fd5b3073ffffffffffffffffffffffffffffffffffffffff168173ffffffffffffffffffffffffffffffffffffffff161415610e6957600080fd5b6000600a60008673ffffffffffffffffffffffffffffffffffffffff1673ffffffffffffffffffffffffffffffffffffffff168152602001908152602001600020549050600060095482610ebd9190612003565b905080600b60008873ffffffffffffffffffffffffffffffffffffffff1673ffffffffffffffffffffffffffffffffffffffff16815260200190815260200160002060003373ffffffffffffffffffffffffffffffffffffffff1673ffffffffffffffffffffffffffffffffffffffff1681526020019081526020016000206000828254610f4b9190611ef0565b92505081905550600a60008773ffffffffffffffffffffffffffffffffffffffff1673ffffffffffffffffffffffffffffffffffffffff1681526020019081526020016000206000905581600a60008773ffffffffffffffffffffffffffffffffffffffff1673ffffffffffffffffffffffffffffffffffffffff1681526020019081526020016000206000828254610fe49190611f7e565b925050819055508473ffffffffffffffffffffffffffffffffffffffff168673ffffffffffffffffffffffffffffffffffffffff167fddf252ad1be2c89b69c2b068fc378daa952ba7f163c4a11628f55a4df523b3ef836040516110489190611a9b565b60405180910390a36001935050505092915050565b6110656119b4565b73ffffffffffffffffffffffffffffffffffffffff16611083611154565b73ffffffffffffffffffffffffffffffffffffffff16146110d9576040517f08c379a00000000000000000000000000000000000000000000000000000000081526004016110d090612080565b60405180910390fd5b80600660006101000a81548173ffffffffffffffffffffffffffffffffffffffff021916908373ffffffffffffffffffffffffffffffffffffffff1602179055507f0e6961f1a1afb87eaf51fd64f22ddc10062e23aa7838eac5d0bdf140bfd38972816040516111499190611e45565b60405180910390a150565b6000600560009054906101000a900473ffffffffffffffffffffffffffffffffffffffff16905090565b600660009054906101000a900473ffffffffffffffffffffffffffffffffffffffff1681565b6060600480546111b390611e8f565b80601f01602080910402602001604051908101604052809291908181526020018280546111df90611e8f565b801561122c5780601f106112015761010080835404028352916020019161122c565b820191906000526020600020905b81548152906001019060200180831161120f57829003601f168201915b5050505050905090565b600081600073ffffffffffffffffffffffffffffffffffffffff168173ffffffffffffffffffffffffffffffffffffffff16141561127357600080fd5b3073ffffffffffffffffffffffffffffffffffffffff168173ffffffffffffffffffffffffffffffffffffffff1614156112ac57600080fd5b6000600a60003373ffffffffffffffffffffffffffffffffffffffff1673ffffffffffffffffffffffffffffffffffffffff1681526020019081526020016000205490506000600954826113009190612003565b9050600a60003373ffffffffffffffffffffffffffffffffffffffff1673ffffffffffffffffffffffffffffffffffffffff1681526020019081526020016000206000905581600a60008773ffffffffffffffffffffffffffffffffffffffff1673ffffffffffffffffffffffffffffffffffffffff16815260200190815260200160002060008282546113949190611f7e565b925050819055508473ffffffffffffffffffffffffffffffffffffffff163373ffffffffffffffffffffffffffffffffffffffff167fddf252ad1be2c89b69c2b068fc378daa952ba7f163c4a11628f55a4df523b3ef836040516113f89190611a9b565b60405180910390a360019350505050919050565b600080600b60003373ffffffffffffffffffffffffffffffffffffffff1673ffffffffffffffffffffffffffffffffffffffff16815260200190815260200160002060008573ffffffffffffffffffffffffffffffffffffffff1673ffffffffffffffffffffffffffffffffffffffff168152602001908152602001600020549050808310156114a75782816114a29190611ef0565b6114aa565b60005b600b60003373ffffffffffffffffffffffffffffffffffffffff1673ffffffffffffffffffffffffffffffffffffffff16815260200190815260200160002060008673ffffffffffffffffffffffffffffffffffffffff1673ffffffffffffffffffffffffffffffffffffffff168152602001908152602001600020819055508373ffffffffffffffffffffffffffffffffffffffff163373ffffffffffffffffffffffffffffffffffffffff167f8c5be1e5ebec7d5bd14f71427d1e84f3dd0314c0f7b2291e5b200ac8c7c3b925600b60003373ffffffffffffffffffffffffffffffffffffffff1673ffffffffffffffffffffffffffffffffffffffff16815260200190815260200160002060008873ffffffffffffffffffffffffffffffffffffffff1673ffffffffffffffffffffffffffffffffffffffff168152602001908152602001600020546040516116039190611a9b565b60405180910390a3600191505092915050565b600082600073ffffffffffffffffffffffffffffffffffffffff168173ffffffffffffffffffffffffffffffffffffffff16141561165357600080fd5b3073ffffffffffffffffffffffffffffffffffffffff168173ffffffffffffffffffffffffffffffffffffffff16141561168c57600080fd5b60006009548461169c9190611f24565b905080600a60003373ffffffffffffffffffffffffffffffffffffffff1673ffffffffffffffffffffffffffffffffffffffff16815260200190815260200160002060008282546116ed9190611ef0565b9250508190555080600a60008773ffffffffffffffffffffffffffffffffffffffff1673ffffffffffffffffffffffffffffffffffffffff16815260200190815260200160002060008282546117439190611f7e565b925050819055508473ffffffffffffffffffffffffffffffffffffffff163373ffffffffffffffffffffffffffffffffffffffff167fddf252ad1be2c89b69c2b068fc378daa952ba7f163c4a11628f55a4df523b3ef866040516117a79190611a9b565b60405180910390a360019250505092915050565b60006009600a6117cb919061221c565b6302faf0806117da9190611f24565b7fffffffffffffffffffffffffffffffffffffffffffffffffffffffffffffffff6118059190612267565b7fffffffffffffffffffffffffffffffffffffffffffffffffffffffffffffffff6118309190611ef0565b905090565b6000600b60008473ffffffffffffffffffffffffffffffffffffffff1673ffffffffffffffffffffffffffffffffffffffff16815260200190815260200160002060008373ffffffffffffffffffffffffffffffffffffffff1673ffffffffffffffffffffffffffffffffffffffff16815260200190815260200160002054905092915050565b6118c46119b4565b73ffffffffffffffffffffffffffffffffffffffff166118e2611154565b73ffffffffffffffffffffffffffffffffffffffff1614611938576040517f08c379a000000000000000000000000000000000000000000000000000000000815260040161192f90612080565b60405180910390fd5b600073ffffffffffffffffffffffffffffffffffffffff168173ffffffffffffffffffffffffffffffffffffffff1614156119a8576040517f08c379a000000000000000000000000000000000000000000000000000000000815260040161199f9061230a565b60405180910390fd5b6119b1816119bc565b50565b600033905090565b6000600560009054906101000a900473ffffffffffffffffffffffffffffffffffffffff16905081600560006101000a81548173ffffffffffffffffffffffffffffffffffffffff021916908373ffffffffffffffffffffffffffffffffffffffff1602179055508173ffffffffffffffffffffffffffffffffffffffff168173ffffffffffffffffffffffffffffffffffffffff167f8be0079c531659141344cd1fd0a4f28419497f9722a3daafe3b4186f6b6457e060405160405180910390a35050565b6000819050919050565b611a9581611a82565b82525050565b6000602082019050611ab06000830184611a8c565b92915050565b600081519050919050565b600082825260208201905092915050565b60005b83811015611af0578082015181840152602081019050611ad5565b83811115611aff576000848401525b50505050565b6000601f19601f8301169050919050565b6000611b2182611ab6565b611b2b8185611ac1565b9350611b3b818560208601611ad2565b611b4481611b05565b840191505092915050565b60006020820190508181036000830152611b698184611b16565b905092915050565b600080fd5b600073ffffffffffffffffffffffffffffffffffffffff82169050919050565b6000611ba182611b76565b9050919050565b611bb181611b96565b8114611bbc57600080fd5b50565b600081359050611bce81611ba8565b92915050565b611bdd81611a82565b8114611be857600080fd5b50565b600081359050611bfa81611bd4565b92915050565b60008060408385031215611c1757611c16611b71565b5b6000611c2585828601611bbf565b9250506020611c3685828601611beb565b9150509250929050565b60008115159050919050565b611c5581611c40565b82525050565b6000602082019050611c706000830184611c4c565b92915050565b600060208284031215611c8c57611c8b611b71565b5b6000611c9a84828501611bbf565b91505092915050565b600080600060608486031215611cbc57611cbb611b71565b5b6000611cca86828701611bbf565b9350506020611cdb86828701611bbf565b9250506040611cec86828701611beb565b9150509250925092565b600060ff82169050919050565b611d0c81611cf6565b82525050565b6000602082019050611d276000830184611d03565b92915050565b6000819050919050565b611d4081611d2d565b8114611d4b57600080fd5b50565b600081359050611d5d81611d37565b92915050565b600080600060608486031215611d7c57611d7b611b71565b5b6000611d8a86828701611beb565b9350506020611d9b86828701611d4e565b9250506040611dac86828701611bbf565b9150509250925092565b60008060408385031215611dcd57611dcc611b71565b5b6000611ddb85828601611beb565b9250506020611dec85828601611d4e565b9150509250929050565b60008060408385031215611e0d57611e0c611b71565b5b6000611e1b85828601611bbf565b9250506020611e2c85828601611bbf565b9150509250929050565b611e3f81611b96565b82525050565b6000602082019050611e5a6000830184611e36565b92915050565b7f4e487b7100000000000000000000000000000000000000000000000000000000600052602260045260246000fd5b60006002820490506001821680611ea757607f821691505b60208210811415611ebb57611eba611e60565b5b50919050565b7f4e487b7100000000000000000000000000000000000000000000000000000000600052601160045260246000fd5b6000611efb82611a82565b9150611f0683611a82565b925082821015611f1957611f18611ec1565b5b828203905092915050565b6000611f2f82611a82565b9150611f3a83611a82565b9250817fffffffffffffffffffffffffffffffffffffffffffffffffffffffffffffffff0483118215151615611f7357611f72611ec1565b5b828202905092915050565b6000611f8982611a82565b9150611f9483611a82565b9250827fffffffffffffffffffffffffffffffffffffffffffffffffffffffffffffffff03821115611fc957611fc8611ec1565b5b828201905092915050565b7f4e487b7100000000000000000000000000000000000000000000000000000000600052601260045260246000fd5b600061200e82611a82565b915061201983611a82565b92508261202957612028611fd4565b5b828204905092915050565b7f4f776e61626c653a2063616c6c6572206973206e6f7420746865206f776e6572600082015250565b600061206a602083611ac1565b915061207582612034565b602082019050919050565b600060208201905081810360008301526120998161205d565b9050919050565b60006120ab82611d2d565b91507f80000000000000000000000000000000000000000000000000000000000000008214156120de576120dd611ec1565b5b816000039050919050565b60008160011c9050919050565b6000808291508390505b60018511156121405780860481111561211c5761211b611ec1565b5b600185161561212b5780820291505b8081029050612139856120e9565b9450612100565b94509492505050565b6000826121595760019050612215565b816121675760009050612215565b816001811461217d5760028114612187576121b6565b6001915050612215565b60ff84111561219957612198611ec1565b5b8360020a9150848211156121b0576121af611ec1565b5b50612215565b5060208310610133831016604e8410600b84101617156121eb5782820a9050838111156121e6576121e5611ec1565b5b612215565b6121f884848460016120f6565b9250905081840481111561220f5761220e611ec1565b5b81810290505b9392505050565b600061222782611a82565b915061223283611a82565b925061225f7fffffffffffffffffffffffffffffffffffffffffffffffffffffffffffffffff8484612149565b905092915050565b600061227282611a82565b915061227d83611a82565b92508261228d5761228c611fd4565b5b828206905092915050565b7f4f776e61626c653a206e6577206f776e657220697320746865207a65726f206160008201527f6464726573730000000000000000000000000000000000000000000000000000602082015250565b60006122f4602683611ac1565b91506122ff82612298565b604082019050919050565b60006020820190508181036000830152612323816122e7565b905091905056fea264697066735822122000b7cf66b978cfab38bad45a67c46426e4c2ea033f1e178c7f6617bc201941ac64736f6c634300080a0033",
  "linkReferences": {},
  "deployedLinkReferences": {}
}